{
  "transactions": [
    {
      "hash": "0x12efab857253b48f9dbd07c0c151083ae791ad13315c38e13855f8bf099f3a3d",
      "transactionType": "CALL",
      "contractName": null,
      "contractAddress": "0x16e4cbbe440658ba4244d97f2f527fd84c336957",
      "function": "createVote(bytes32,uint64,uint256,string)",
      "arguments": [
        "0x1111111111111111111111111111111111111111111111111111111111111111",
        "1774706448",
        "3200000000000000000000",
        "Should VegaVoting proposal #1 pass?"
      ],
      "transaction": {
        "from": "0x105a2357d6e6614810296020ebb551dda6efafd9",
        "to": "0x16e4cbbe440658ba4244d97f2f527fd84c336957",
        "gas": "0x4cb3c",
        "value": "0x0",
        "input": "0xff7434cf11111111111111111111111111111111111111111111111111111111111111110000000000000000000000000000000000000000000000000000000069c7df100000000000000000000000000000000000000000000000ad78ebc5ac620000000000000000000000000000000000000000000000000000000000000000000080000000000000000000000000000000000000000000000000000000000000002353686f756c642056656761566f74696e672070726f706f73616c20233120706173733f0000000000000000000000000000000000000000000000000000000000",
        "nonce": "0x16",
        "chainId": "0xaa36a7"
      },
      "additionalContracts": [],
      "isFixedGasLimit": false
    },
    {
      "hash": "0xa60bddde1b166f00aa51ba7734d823b65fa361ce70a9081c0813b5d4fb971b45",
      "transactionType": "CALL",
      "contractName": null,
      "contractAddress": "0xdf4459a8885801cc92817db984dd351d1f36dd49",
      "function": "transfer(address,uint256)",
      "arguments": [
        "0x105a2357d6e6614810296020eBB551Dda6EfaFd9",
        "100000000000000000000"
      ],
      "transaction": {
        "from": "0x105a2357d6e6614810296020ebb551dda6efafd9",
        "to": "0xdf4459a8885801cc92817db984dd351d1f36dd49",
        "gas": "0x9810",
        "value": "0x0",
        "input": "0xa9059cbb000000000000000000000000105a2357d6e6614810296020ebb551dda6efafd90000000000000000000000000000000000000000000000056bc75e2d63100000",
        "nonce": "0x17",
        "chainId": "0xaa36a7"
      },
      "additionalContracts": [],
      "isFixedGasLimit": false
    },
    {
      "hash": "0x9f53b4eaa05acecd16aa3137e9650e184b06bd7696e94cf27af1d6f2c8b768ca",
      "transactionType": "CALL",
      "contractName": null,
      "contractAddress": "0xdf4459a8885801cc92817db984dd351d1f36dd49",
      "function": "transfer(address,uint256)",
      "arguments": [
        "0x82A846caD47698B25df1D4b177d764897E9352a0",
        "100000000000000000000"
      ],
      "transaction": {
        "from": "0x105a2357d6e6614810296020ebb551dda6efafd9",
        "to": "0xdf4459a8885801cc92817db984dd351d1f36dd49",
        "gas": "0x114e2",
        "value": "0x0",
        "input": "0xa9059cbb00000000000000000000000082a846cad47698b25df1d4b177d764897e9352a00000000000000000000000000000000000000000000000056bc75e2d63100000",
        "nonce": "0x18",
        "chainId": "0xaa36a7"
      },
      "additionalContracts": [],
      "isFixedGasLimit": false
    },
    {
      "hash": "0xba32ac257979cfa644d9b3dc0d2232bc5e2215da273963240dbfcc30ab2c8c84",
      "transactionType": "CALL",
      "contractName": null,
      "contractAddress": "0xdf4459a8885801cc92817db984dd351d1f36dd49",
      "function": "approve(address,uint256)",
      "arguments": [
        "0x16E4Cbbe440658ba4244d97F2f527Fd84c336957",
        "100000000000000000000"
      ],
      "transaction": {
        "from": "0x105a2357d6e6614810296020ebb551dda6efafd9",
        "to": "0xdf4459a8885801cc92817db984dd351d1f36dd49",
        "gas": "0x1069d",
        "value": "0x0",
        "input": "0x095ea7b300000000000000000000000016e4cbbe440658ba4244d97f2f527fd84c3369570000000000000000000000000000000000000000000000056bc75e2d63100000",
        "nonce": "0x19",
        "chainId": "0xaa36a7"
      },
      "additionalContracts": [],
      "isFixedGasLimit": false
    },
    {
      "hash": "0x6bdc7cb18e3bd1e7eef2864886d52990730f362b09540685fc7fc742e1f037ae",
      "transactionType": "CALL",
      "contractName": null,
      "contractAddress": "0x16e4cbbe440658ba4244d97f2f527fd84c336957",
      "function": "stake(uint256,uint256)",
      "arguments": [
        "100000000000000000000",
        "4"
      ],
      "transaction": {
        "from": "0x105a2357d6e6614810296020ebb551dda6efafd9",
        "to": "0x16e4cbbe440658ba4244d97f2f527fd84c336957",
        "gas": "0x2b7de",
        "value": "0x0",
        "input": "0x7b0472f00000000000000000000000000000000000000000000000056bc75e2d631000000000000000000000000000000000000000000000000000000000000000000004",
        "nonce": "0x1a",
        "chainId": "0xaa36a7"
      },
      "additionalContracts": [],
      "isFixedGasLimit": false
    },
    {
      "hash": "0x13475d9f38f8f99bfe58d22f023a97fdc0615b2d6f01514667d0ef015d94bf2d",
      "transactionType": "CALL",
      "contractName": null,
      "contractAddress": "0x16e4cbbe440658ba4244d97f2f527fd84c336957",
      "function": "vote(bytes32,bool)",
      "arguments": [
        "0x1111111111111111111111111111111111111111111111111111111111111111",
        "true"
      ],
      "transaction": {
        "from": "0x105a2357d6e6614810296020ebb551dda6efafd9",
        "to": "0x16e4cbbe440658ba4244d97f2f527fd84c336957",
        "gas": "0x1d905",
        "value": "0x0",
        "input": "0x9f2ce67811111111111111111111111111111111111111111111111111111111111111110000000000000000000000000000000000000000000000000000000000000001",
        "nonce": "0x1b",
        "chainId": "0xaa36a7"
      },
      "additionalContracts": [],
      "isFixedGasLimit": false
    },
    {
      "hash": "0x99ff56ad8a2984e77135d46bae424ad3549b127ba45f6cc558d2774d8ca21385",
      "transactionType": "CALL",
      "contractName": null,
      "contractAddress": "0xdf4459a8885801cc92817db984dd351d1f36dd49",
      "function": "approve(address,uint256)",
      "arguments": [
        "0x16E4Cbbe440658ba4244d97F2f527Fd84c336957",
        "100000000000000000000"
      ],
      "transaction": {
        "from": "0x82a846cad47698b25df1d4b177d764897e9352a0",
        "to": "0xdf4459a8885801cc92817db984dd351d1f36dd49",
        "gas": "0x1069d",
        "value": "0x0",
        "input": "0x095ea7b300000000000000000000000016e4cbbe440658ba4244d97f2f527fd84c3369570000000000000000000000000000000000000000000000056bc75e2d63100000",
        "nonce": "0x1",
        "chainId": "0xaa36a7"
      },
      "additionalContracts": [],
      "isFixedGasLimit": false
    },
    {
      "hash": "0x3649fc067b6a068f12b9f9cb1978ae77f63b0cb1b186c75299baeee4cfe7eb23",
      "transactionType": "CALL",
      "contractName": null,
      "contractAddress": "0x16e4cbbe440658ba4244d97f2f527fd84c336957",
      "function": "stake(uint256,uint256)",
      "arguments": [
        "100000000000000000000",
        "4"
      ],
      "transaction": {
        "from": "0x82a846cad47698b25df1d4b177d764897e9352a0",
        "to": "0x16e4cbbe440658ba4244d97f2f527fd84c336957",
        "gas": "0x263b2",
        "value": "0x0",
        "input": "0x7b0472f00000000000000000000000000000000000000000000000056bc75e2d631000000000000000000000000000000000000000000000000000000000000000000004",
        "nonce": "0x2",
        "chainId": "0xaa36a7"
      },
      "additionalContracts": [],
      "isFixedGasLimit": false
    },
    {
      "hash": "0xdf15e9d1e9e8d611c13bddb4b91c76312af6bf73d798cc2f1df96ebc17832dd8",
      "transactionType": "CALL",
      "contractName": null,
      "contractAddress": "0x16e4cbbe440658ba4244d97f2f527fd84c336957",
      "function": "vote(bytes32,bool)",
      "arguments": [
        "0x1111111111111111111111111111111111111111111111111111111111111111",
        "true"
      ],
      "transaction": {
        "from": "0x82a846cad47698b25df1d4b177d764897e9352a0",
        "to": "0x16e4cbbe440658ba4244d97f2f527fd84c336957",
        "gas": "0x83874",
        "value": "0x0",
        "input": "0x9f2ce67811111111111111111111111111111111111111111111111111111111111111110000000000000000000000000000000000000000000000000000000000000001",
        "nonce": "0x3",
        "chainId": "0xaa36a7"
      },
      "additionalContracts": [],
      "isFixedGasLimit": false
    }
  ],
  "receipts": [
    {
      "status": "0x1",
      "cumulativeGasUsed": "0x1d0f097",
      "logs": [
        {
          "address": "0x16e4cbbe440658ba4244d97f2f527fd84c336957",
          "topics": [
            "0x82840a8e941c6301cf61367b8bfeda12e3e287f42237776f6878e7948a31dd82",
            "0x1111111111111111111111111111111111111111111111111111111111111111",
            "0x000000000000000000000000105a2357d6e6614810296020ebb551dda6efafd9"
          ],
          "data": "0x0000000000000000000000000000000000000000000000000000000069c7df100000000000000000000000000000000000000000000000ad78ebc5ac620000000000000000000000000000000000000000000000000000000000000000000060000000000000000000000000000000000000000000000000000000000000002353686f756c642056656761566f74696e672070726f706f73616c20233120706173733f0000000000000000000000000000000000000000000000000000000000",
          "blockHash": "0xa1a5e1c73c459d9110e833c8d0437e2a7b7490dd8670fe478d23eb8d45f7e212",
          "blockNumber": "0xa0b8c7",
          "blockTimestamp": "0x69c68dcc",
          "transactionHash": "0x12efab857253b48f9dbd07c0c151083ae791ad13315c38e13855f8bf099f3a3d",
          "transactionIndex": "0x8f",
          "logIndex": "0x360",
          "removed": false
        }
      ],
      "logsBloom": "0x00000000000000000000000001000000000000000000040000002000000000000000100000000000000000000000000000000000000000000000000000000000000000000000000000000000000000000000020000000000000008000000000000000000000000000000000000000021000000000000000000000000000000000000000000000000000000000000000000400000000000000000000000000000000000000000000000000000000000000000000000000000000000002000000000000000000000000000000000200000000000000000000000000000000000000000004000000000000000000000000000000000000000000000000000000000",
      "type": "0x2",
      "transactionHash": "0x12efab857253b48f9dbd07c0c151083ae791ad13315c38e13855f8bf099f3a3d",
      "transactionIndex": "0x8f",
      "blockHash": "0xa1a5e1c73c459d9110e833c8d0437e2a7b7490dd8670fe478d23eb8d45f7e212",
      "blockNumber": "0xa0b8c7",
      "gasUsed": "0x34723",
      "effectiveGasPrice": "0xf4257",
      "from": "0x105a2357d6e6614810296020ebb551dda6efafd9",
      "to": "0x16e4cbbe440658ba4244d97f2f527fd84c336957",
      "contractAddress": null
    },
    {
      "status": "0x1",
      "cumulativeGasUsed": "0xcaae60",
      "logs": [
        {
          "address": "0xdf4459a8885801cc92817db984dd351d1f36dd49",
          "topics": [
            "0xddf252ad1be2c89b69c2b068fc378daa952ba7f163c4a11628f55a4df523b3ef",
            "0x000000000000000000000000105a2357d6e6614810296020ebb551dda6efafd9",
            "0x000000000000000000000000105a2357d6e6614810296020ebb551dda6efafd9"
          ],
          "data": "0x0000000000000000000000000000000000000000000000056bc75e2d63100000",
          "blockHash": "0xbd9887f7db60368e41bbc773a1699a84fc29a677f3aa4693e8d50249f1f93a2f",
          "blockNumber": "0xa0b8c8",
          "blockTimestamp": "0x69c68dd8",
          "transactionHash": "0xa60bddde1b166f00aa51ba7734d823b65fa361ce70a9081c0813b5d4fb971b45",
          "transactionIndex": "0x4d",
          "logIndex": "0x1ec",
          "removed": false
        }
      ],
      "logsBloom": "0x00000000000000000000000000000000000000000000000000000000000000040000100000000000000000000000000000000000000000000000000000000000000000000000000000000008000000000000000000000000000000000000000040000000000000000000000000000000000000000000000000000010000000000000000000000000000000000000000000400000000000000000000000000000000000000000000000000000000000000000000000000000000000000000000000000002000000000000000000000000000000000000000000000000000000000000004000000000000000020000000000000000000000000000000000000000",
      "type": "0x2",
      "transactionHash": "0xa60bddde1b166f00aa51ba7734d823b65fa361ce70a9081c0813b5d4fb971b45",
      "transactionIndex": "0x4d",
      "blockHash": "0xbd9887f7db60368e41bbc773a1699a84fc29a677f3aa4693e8d50249f1f93a2f",
      "blockNumber": "0xa0b8c8",
      "gasUsed": "0x67fa",
      "effectiveGasPrice": "0xf4259",
      "from": "0x105a2357d6e6614810296020ebb551dda6efafd9",
      "to": "0xdf4459a8885801cc92817db984dd351d1f36dd49",
      "contractAddress": null
    },
    {
      "status": "0x1",
      "cumulativeGasUsed": "0x1783b8c",
      "logs": [
        {
          "address": "0xdf4459a8885801cc92817db984dd351d1f36dd49",
          "topics": [
            "0xddf252ad1be2c89b69c2b068fc378daa952ba7f163c4a11628f55a4df523b3ef",
            "0x000000000000000000000000105a2357d6e6614810296020ebb551dda6efafd9",
            "0x00000000000000000000000082a846cad47698b25df1d4b177d764897e9352a0"
          ],
          "data": "0x0000000000000000000000000000000000000000000000056bc75e2d63100000",
          "blockHash": "0xdd87643b8ce63665b399152be95a8617f4fd66c7b92a4067818e20074c817046",
          "blockNumber": "0xa0b8c9",
          "blockTimestamp": "0x69c68de4",
          "transactionHash": "0x9f53b4eaa05acecd16aa3137e9650e184b06bd7696e94cf27af1d6f2c8b768ca",
          "transactionIndex": "0xb7",
          "logIndex": "0x357",
          "removed": false
        }
      ],
      "logsBloom": "0x00000000000000000000000000000000000000000000000000000000000000040000100000000000000000000000000000002000000000000000000000000010000000000000000000000008000000000000000000000000000000000000000040000000000000000000000000000000000000000000000000000010000000000000000000000000000000000000008000400000000000000000000000000000000000000000000000000000000000000000000000000000000000000000000000000002000000000000000000000000000000000000000000000000000000000000004000000000000000020000000000000000000000000000000000000000",
      "type": "0x2",
      "transactionHash": "0x9f53b4eaa05acecd16aa3137e9650e184b06bd7696e94cf27af1d6f2c8b768ca",
      "transactionIndex": "0xb7",
      "blockHash": "0xdd87643b8ce63665b399152be95a8617f4fd66c7b92a4067818e20074c817046",
      "blockNumber": "0xa0b8c9",
      "gasUsed": "0xc876",
      "effectiveGasPrice": "0xf4258",
      "from": "0x105a2357d6e6614810296020ebb551dda6efafd9",
      "to": "0xdf4459a8885801cc92817db984dd351d1f36dd49",
      "contractAddress": null
    },
    {
      "status": "0x1",
      "cumulativeGasUsed": "0xfad107",
      "logs": [
        {
          "address": "0xdf4459a8885801cc92817db984dd351d1f36dd49",
          "topics": [
            "0x8c5be1e5ebec7d5bd14f71427d1e84f3dd0314c0f7b2291e5b200ac8c7c3b925",
            "0x000000000000000000000000105a2357d6e6614810296020ebb551dda6efafd9",
            "0x00000000000000000000000016e4cbbe440658ba4244d97f2f527fd84c336957"
          ],
          "data": "0x0000000000000000000000000000000000000000000000056bc75e2d63100000",
          "blockHash": "0xa09a42af2be8d7acb74200e6a020ed0d5c9877cc2914993ff6d1169e8236b25a",
          "blockNumber": "0xa0b8ca",
          "blockTimestamp": "0x69c68df0",
          "transactionHash": "0xba32ac257979cfa644d9b3dc0d2232bc5e2215da273963240dbfcc30ab2c8c84",
          "transactionIndex": "0x70",
          "logIndex": "0x297",
          "removed": false
        }
      ],
      "logsBloom": "0x00000000000000000000000000000000000000000000000000020000000000040000100000000000000000000000000000000000000000000000000000200000000000000000000000000000000000000000000000000000000000000000000040000100000000000000000000000000000000000000000000000000000000000000000000000000000000000000000000400000000000000000000000000000020000000000000000000000000004000000000000000000000000000000000000000000000000000000000000000000000000000000000000000000000000000010004000000000000000020000000000000000000000000000000000000000",
      "type": "0x2",
      "transactionHash": "0xba32ac257979cfa644d9b3dc0d2232bc5e2215da273963240dbfcc30ab2c8c84",
      "transactionIndex": "0x70",
      "blockHash": "0xa09a42af2be8d7acb74200e6a020ed0d5c9877cc2914993ff6d1169e8236b25a",
      "blockNumber": "0xa0b8ca",
      "gasUsed": "0xb391",
      "effectiveGasPrice": "0xf4258",
      "from": "0x105a2357d6e6614810296020ebb551dda6efafd9",
      "to": "0xdf4459a8885801cc92817db984dd351d1f36dd49",
      "contractAddress": null
    },
    {
      "status": "0x1",
      "cumulativeGasUsed": "0xd4fc98",
      "logs": [
        {
          "address": "0xdf4459a8885801cc92817db984dd351d1f36dd49",
          "topics": [
            "0xddf252ad1be2c89b69c2b068fc378daa952ba7f163c4a11628f55a4df523b3ef",
            "0x000000000000000000000000105a2357d6e6614810296020ebb551dda6efafd9",
            "0x00000000000000000000000016e4cbbe440658ba4244d97f2f527fd84c336957"
          ],
          "data": "0x0000000000000000000000000000000000000000000000056bc75e2d63100000",
          "blockHash": "0xb8829d58768a55d279739673d99346501fd351e7a5feb6f5ce89939e233f596f",
          "blockNumber": "0xa0b8cb",
          "blockTimestamp": "0x69c68dfc",
          "transactionHash": "0x6bdc7cb18e3bd1e7eef2864886d52990730f362b09540685fc7fc742e1f037ae",
          "transactionIndex": "0x60",
          "logIndex": "0x1f2",
          "removed": false
        },
        {
          "address": "0x16e4cbbe440658ba4244d97f2f527fd84c336957",
          "topics": [
            "0x0ec14aabb094ff23153438a46f51e7bda66ea34382b90c5d7a92e9cebdf72492",
            "0x000000000000000000000000105a2357d6e6614810296020ebb551dda6efafd9",
            "0x0000000000000000000000000000000000000000000000000000000000000000"
          ],
          "data": "0x0000000000000000000000000000000000000000000000056bc75e2d631000000000000000000000000000000000000000000000000000000000000069cbd3fc",
          "blockHash": "0xb8829d58768a55d279739673d99346501fd351e7a5feb6f5ce89939e233f596f",
          "blockNumber": "0xa0b8cb",
          "blockTimestamp": "0x69c68dfc",
          "transactionHash": "0x6bdc7cb18e3bd1e7eef2864886d52990730f362b09540685fc7fc742e1f037ae",
          "transactionIndex": "0x60",
          "logIndex": "0x1f3",
          "removed": false
        }
      ],
      "logsBloom": "0x00000000000000000000000000000000000000000000040000020000000000040000100000000000000000000000000000000000400000000000000000000000000000000000000000000008000000000000000000000000000000000000000040000100020020000000000000000820000000000000000000000010000000000000000000000000000000000000000000400000000000000000000000000000000000000000000000000000000004000000000000000000000000000000000000000002000000000000000000200000000000000000000000000000000020000000004000000000000000020000000000000000000000000000000000000080",
      "type": "0x2",
      "transactionHash": "0x6bdc7cb18e3bd1e7eef2864886d52990730f362b09540685fc7fc742e1f037ae",
      "transactionIndex": "0x60",
      "blockHash": "0xb8829d58768a55d279739673d99346501fd351e7a5feb6f5ce89939e233f596f",
      "blockNumber": "0xa0b8cb",
      "gasUsed": "0x1f7cd",
      "effectiveGasPrice": "0xf4258",
      "from": "0x105a2357d6e6614810296020ebb551dda6efafd9",
      "to": "0x16e4cbbe440658ba4244d97f2f527fd84c336957",
      "contractAddress": null
    },
    {
      "status": "0x1",
      "cumulativeGasUsed": "0x12d6586",
      "logs": [
        {
          "address": "0x16e4cbbe440658ba4244d97f2f527fd84c336957",
          "topics": [
            "0x755f5495b65e6ffe748de1fe7173213557d364935e9d4804c17a03cc90b5532b",
            "0x1111111111111111111111111111111111111111111111111111111111111111",
            "0x000000000000000000000000105a2357d6e6614810296020ebb551dda6efafd9"
          ],
          "data": "0x000000000000000000000000000000000000000000000000000000000000000100000000000000000000000000000000000000000000005150ae84a8cdf00000",
          "blockHash": "0xdd978347c6f16bdb983fcc93ce10313370f5b4d2795e7c331ee97a1dc11bef73",
          "blockNumber": "0xa0b8cc",
          "blockTimestamp": "0x69c68e08",
          "transactionHash": "0x13475d9f38f8f99bfe58d22f023a97fdc0615b2d6f01514667d0ef015d94bf2d",
          "transactionIndex": "0x94",
          "logIndex": "0x332",
          "removed": false
        }
      ],
      "logsBloom": "0x00000000000000000000000000000000100000000000040000002000000000000000100000000000000000000000000000000000000000000000000000000000000000000000000000000000000000000000020000000000000000000000000000000000000000000002000000000020000000000000000000000000000000000000000000000000000001000000000000400000000000000000000000000000000000000000000000000000000000000000000000000000000000002000000000000000000000000000000000200000000000000000000000000000000000000000004000000000000000000000000000000000000000000000000000000000",
      "type": "0x2",
      "transactionHash": "0x13475d9f38f8f99bfe58d22f023a97fdc0615b2d6f01514667d0ef015d94bf2d",
      "transactionIndex": "0x94",
      "blockHash": "0xdd978347c6f16bdb983fcc93ce10313370f5b4d2795e7c331ee97a1dc11bef73",
      "blockNumber": "0xa0b8cc",
      "gasUsed": "0x15676",
      "effectiveGasPrice": "0xf4257",
      "from": "0x105a2357d6e6614810296020ebb551dda6efafd9",
      "to": "0x16e4cbbe440658ba4244d97f2f527fd84c336957",
      "contractAddress": null
    },
    {
      "status": "0x1",
      "cumulativeGasUsed": "0xea059d",
      "logs": [
        {
          "address": "0xdf4459a8885801cc92817db984dd351d1f36dd49",
          "topics": [
            "0x8c5be1e5ebec7d5bd14f71427d1e84f3dd0314c0f7b2291e5b200ac8c7c3b925",
            "0x00000000000000000000000082a846cad47698b25df1d4b177d764897e9352a0",
            "0x00000000000000000000000016e4cbbe440658ba4244d97f2f527fd84c336957"
          ],
          "data": "0x0000000000000000000000000000000000000000000000056bc75e2d63100000",
          "blockHash": "0x913885a45daf8a00ba207694b6c40b388f1e8fa3da66db61d8a10505bbfbeb1a",
          "blockNumber": "0xa0b8cd",
          "blockTimestamp": "0x69c68e14",
          "transactionHash": "0x99ff56ad8a2984e77135d46bae424ad3549b127ba45f6cc558d2774d8ca21385",
          "transactionIndex": "0x5f",
          "logIndex": "0x29d",
          "removed": false
        }
      ],
      "logsBloom": "0x00000000000000000000000000000000000000000000000000020000000000040000000000000000000000000000000000002000000000000000000000200010000000000000000000000000000000000000000000000000000000000000000040000100000000000000000000000000000000000000000000000000000000000000000000000000000000000000008000000000000000000000000000000000020000000000000000000000000004000000000000000000000000000000000000000000000000000000000000000000000000000000000000000000000000000010000000000000000000020000000000000000000000000000000000000000",
      "type": "0x2",
      "transactionHash": "0x99ff56ad8a2984e77135d46bae424ad3549b127ba45f6cc558d2774d8ca21385",
      "transactionIndex": "0x5f",
      "blockHash": "0x913885a45daf8a00ba207694b6c40b388f1e8fa3da66db61d8a10505bbfbeb1a",
      "blockNumber": "0xa0b8cd",
      "gasUsed": "0xb391",
      "effectiveGasPrice": "0xf4257",
      "from": "0x82a846cad47698b25df1d4b177d764897e9352a0",
      "to": "0xdf4459a8885801cc92817db984dd351d1f36dd49",
      "contractAddress": null
    },
    {
      "status": "0x1",
      "cumulativeGasUsed": "0xd1dc7d",
      "logs": [
        {
          "address": "0xdf4459a8885801cc92817db984dd351d1f36dd49",
          "topics": [
            "0xddf252ad1be2c89b69c2b068fc378daa952ba7f163c4a11628f55a4df523b3ef",
            "0x00000000000000000000000082a846cad47698b25df1d4b177d764897e9352a0",
            "0x00000000000000000000000016e4cbbe440658ba4244d97f2f527fd84c336957"
          ],
          "data": "0x0000000000000000000000000000000000000000000000056bc75e2d63100000",
          "blockHash": "0xfcbbb2b4d879275e12d6b00e1c82b5fb88b09a87f51102506fee0ea99ef4d8c5",
          "blockNumber": "0xa0b8ce",
          "blockTimestamp": "0x69c68e20",
          "transactionHash": "0x3649fc067b6a068f12b9f9cb1978ae77f63b0cb1b186c75299baeee4cfe7eb23",
          "transactionIndex": "0x64",
          "logIndex": "0x1e2",
          "removed": false
        },
        {
          "address": "0x16e4cbbe440658ba4244d97f2f527fd84c336957",
          "topics": [
            "0x0ec14aabb094ff23153438a46f51e7bda66ea34382b90c5d7a92e9cebdf72492",
            "0x00000000000000000000000082a846cad47698b25df1d4b177d764897e9352a0",
            "0x0000000000000000000000000000000000000000000000000000000000000000"
          ],
          "data": "0x0000000000000000000000000000000000000000000000056bc75e2d631000000000000000000000000000000000000000000000000000000000000069cbd420",
          "blockHash": "0xfcbbb2b4d879275e12d6b00e1c82b5fb88b09a87f51102506fee0ea99ef4d8c5",
          "blockNumber": "0xa0b8ce",
          "blockTimestamp": "0x69c68e20",
          "transactionHash": "0x3649fc067b6a068f12b9f9cb1978ae77f63b0cb1b186c75299baeee4cfe7eb23",
          "transactionIndex": "0x64",
          "logIndex": "0x1e3",
          "removed": false
        }
      ],
      "logsBloom": "0x00000000000000000000000000000000000000000000040000020000000000040000000000000000000000000000000000002000400000000000000000000010000000000000000000000008000000000000000000000000000000000000000040000100020020000000000000000820000000000000000000000010000000000000000000000000000000000000008000000000000000000000000000000000000000000000000000000000000004000000000000000000000000000000000000000002000000000000000000200000000000000000000000000000000020000000000000000000000000020000000000000000000000000000000000000080",
      "type": "0x2",
      "transactionHash": "0x3649fc067b6a068f12b9f9cb1978ae77f63b0cb1b186c75299baeee4cfe7eb23",
      "transactionIndex": "0x64",
      "blockHash": "0xfcbbb2b4d879275e12d6b00e1c82b5fb88b09a87f51102506fee0ea99ef4d8c5",
      "blockNumber": "0xa0b8ce",
      "gasUsed": "0x1a241",
      "effectiveGasPrice": "0xf4257",
      "from": "0x82a846cad47698b25df1d4b177d764897e9352a0",
      "to": "0x16e4cbbe440658ba4244d97f2f527fd84c336957",
      "contractAddress": null
    },
    {
      "status": "0x1",
      "cumulativeGasUsed": "0xd90392",
      "logs": [
        {
          "address": "0x16e4cbbe440658ba4244d97f2f527fd84c336957",
          "topics": [
            "0x755f5495b65e6ffe748de1fe7173213557d364935e9d4804c17a03cc90b5532b",
            "0x1111111111111111111111111111111111111111111111111111111111111111",
            "0x00000000000000000000000082a846cad47698b25df1d4b177d764897e9352a0"
          ],
          "data": "0x000000000000000000000000000000000000000000000000000000000000000100000000000000000000000000000000000000000000005150ae84a8cdf00000",
          "blockHash": "0x8b8939809c6dcbd0887095760042f41a7c18b759239a14c169ece5df566ed781",
          "blockNumber": "0xa0b8d0",
          "blockTimestamp": "0x69c68e38",
          "transactionHash": "0xdf15e9d1e9e8d611c13bddb4b91c76312af6bf73d798cc2f1df96ebc17832dd8",
          "transactionIndex": "0x5c",
          "logIndex": "0x244",
          "removed": false
        }
      ],
      "logsBloom": "0x00000000000000000000000000000000100000000000040000002000000000000000000000000000000000000000000000002000000000000000000000000010000000000000000000000000000000000000020000000000000000000000000000000000000000000002000000000020000000000000000000000000000000000000000000000000000001000000008000000000000000000000000000000000000000000000000000000000000000000000000000000000000000002000000000000000000000000000000000200000000000000000000000000000000000000000000000000000000000000000000000000000000000000000000000000000",
      "type": "0x2",
      "transactionHash": "0xdf15e9d1e9e8d611c13bddb4b91c76312af6bf73d798cc2f1df96ebc17832dd8",
      "transactionIndex": "0x5c",
      "blockHash": "0x8b8939809c6dcbd0887095760042f41a7c18b759239a14c169ece5df566ed781",
      "blockNumber": "0xa0b8d0",
      "gasUsed": "0x113aa",
      "effectiveGasPrice": "0xf4258",
      "from": "0x82a846cad47698b25df1d4b177d764897e9352a0",
      "to": "0x16e4cbbe440658ba4244d97f2f527fd84c336957",
      "contractAddress": null
    }
  ],
  "libraries": [],
  "pending": [],
  "returns": {},
  "timestamp": 1774620217643,
  "chain": 11155111,
  "commit": "11d0282"
}